:100000006F0040016F00C000000000000000000011
:10001000730020309301C00817110000130181BE46
:100020009302C0081303C00863F8620023A0020013
:1000300093824200E3EC62FEEF00C0036F00000019
:1000400000000000B7110000938101C0930200027C
:1000500013030000638862009383F300130313000B
:100060006FF05FFF338471001304F4002300A400D9
:1000700067800000030580089305F0001306F00078
:08008000EFF05FFC6F000000CF
:010088004334
:00000001FF
