:100000006F0040016F00C000000000000000000011
:10001000730020309301C01C17110000130181BE32
:100020009302C01C1303C01C63F8620023A00200EB
:1000300093824200E3EC62FEEF0000156F000000C7
:1000400000000000371E0000130E0EC0B71E000097
:10005000938EFEFF6308DE012300AE00130E1E0028
:100060006FF05FFF2380AE0067800000B7110000D3
:10007000938101C0930200021303000063886200B1
:10008000B383B300130313006FF05FFF3384710079
:100090003304B4002300A40067800000130101FCB6
:1000A000232E1102232C810213040104232CC4FCEF
:1000B000232AD4FC2328E4FC2326F4FC9307050020
:1000C000A30FF4FC93870500230FF4FC8347F4FD92
:1000D00013850700EFF01FF7832784FD2326F4FE26
:1000E000832744FD2324F4FE6F0080038347E4FD4F
:1000F000032644FD8325C4FE13850700EFF01FF798
:100100008347E4FD0326C4FC8325C4FE1385070052
:10011000EFF0DFF58327C4FE938717002326F4FE54
:100120000327C4FE832704FDE3D2E7FC6F008003AE
:100130008347E4FD032684FE832584FD13850700A1
:10014000EFF0DFF28347E4FD032684FE832504FD00
:1001500013850700EFF09FF1832784FE9387170034
:100160002324F4FE032784FE8327C4FCE3D2E7FCA8
:1001700013000000130000008320C1030324810347
:100180001301010467800000130101FF2326110001
:1001900023248100130401019307700113079001C8
:1001A0009306800013061000930530041305C00B5E
:1001B000EFF0DFEE93070000138507008320C100F6
:0C01C0000324810013010101678000008E
:00000001FF
